S00B000067736D2E73726563D2
S113000012C04AC02BC0CAC402C49BC440C46CC43E
S1130010D1C37DC323C058C53EC520C01FC01EC068
S11300201DC01CC01BC011241FBECFE5D4E0DEBF21
S1130030CDBF11E0A0E6B0E0EEE7FBE002C0059022
S11300400D92AC32B107D9F722E0ACE2B1E001C0C5
S11300501D92AF34B207E1F72ED08FC5D1CFB99A34
S113006011C0C19A181619068CF420E030E02F5FF5
S11300703F4F82179307D9F70BC02F5F3F4F82176B
S11300809307D9F76150710960F70895C198FACFC1
S1130090C19820E030E0F1CF1F920F920FB60F927B
S11300A011248F9381E080932C018F910F900FBEC8
S11300B00F901F90189568EC70E084E690E0CFDF15
S11300C02FEF3FEA81E0215030408040E1F700C04B
S11300D0000064E670E088EC90E0C1DF9FEF2FEA57
S11300E031E0915020403040E1F700C0000062E36D
S11300F070E080E991E0B3DF87E489B910BC88E956
S11301008AB978948BB780648BBF85B78E7F85BF9F
S113011085B7826085BF8A98B99ABA9ABB9AC29AFF
S11301208FEF9FE722E332E081509040204030403F
S1130130D9F700C0000080E690E071D48FEF9FEB08
S113014026E0815090402040E1F700C0000085E6A1
S113015090E065D43FEF8FEB96E0315080409040C3
S1130160E1F700C000008CE690E059D42FEF3FEB9C
S113017086E0215030408040E1F700C0000088E76D
S113018090E04DD49FEF2FEB36E09150204030406B
S1130190E1F700C0000080E990E041D48FEF9FEBCD
S11301A028EA815090402040E1F700C000008EE929
S11301B090E035D43FEF8FEB98EA31508040904087
S11301C0E1F700C0000064E670E088EC90E047DFEF
S11301D068EC70E080E991E042DFC29880912C01E4
S11301E0813009F053C0C29AC39A68EC70E084EF7E
S11301F091E035DF80E690E012D42FEF3FEB86E00C
S1130200215030408040E1F700C0000085E690E0D6
S113021006D49FEF2FEB36E0915020403040E1F7B9
S113022000C000008CE690E0FAD38FEF9FEB26E04D
S1130230815090402040E1F700C0000088E790E042
S1130240EED33FEF8FEB96E0315080409040E1F7E2
S113025000C0000083EB90E0E2D32FEF3FE389E19D
S113026091E02150304080409040D9F700C0000018
S11302708EE990E0D4D32FEF3FEB88EA2150304051
S11302808040E1F700C0000010922C019FEF2FEB9B
S113029031E2915020403040E1F700C0000064E6B4
S11302A08BE391E0DED36BEC70E08BE391E04BD415
S11302B0892B09F493CF8FEF9FEB21E2815090407B
S11302C02040E1F700C0000080ED90E0A8D33FEFAC
S11302D08FEB96E0315080409040E1F700C0000081
S11302E064E68BE391E0BDD38EE990E098D32FEFE1
S11302F03FEB81E2215030408040E1F700C0000034
S11303006CED70E08BE391E0F9D3892B09F44FC0D5
S1130310C29AC39A68EC70E084EF91E0A0DE80E6B4
S113032090E07DD39FEF2FEB36E09150204030409A
S1130330E1F700C0000085E690E071D38FEF9FEBFA
S113034026E0815090402040E1F700C000008CE698
S113035090E065D33FEF8FEB96E0315080409040C2
S1130360E1F700C0000088E790E059D32FEF3FEB9E
S113037086E0215030408040E1F700C000008FED5E
S113038090E04DD39FEF2FEB38EA9150204030405E
S1130390E1F700C000008EE990E041D38FEF9FEBBE
S11303A028EA815090402040E1F700C0000060EF4F
S11303B070E08BE391E0A2D3892B09F44FC0C2987B
S11303C0C39868EC70E084EF91E049DE80E690E049
S11303D026D33FEF8FEB96E0315080409040E1F719
S11303E000C0000085E690E01AD32FEF3FEB86E0D3
S11303F0215030408040E1F700C000008CE690E0DE
S11304000ED39FEF2FEB36E0915020403040E1F7C0
S113041000C0000088E790E002D38FEF9FEB26E056
S1130420815090402040E1F700C0000084EF90E04C
S1130430F6D23FEF8FEB98EA315080409040E1F7DD
S113044000C000008EE990E0EAD22FEF3FEB88EA8B
S1130450215030408040E1F700C0000066E071E0C8
S11304608BE391E04BD3892B09F44EC0C39A68EC1B
S113047070E084EF91E0F3DD80E690E0D0D29FEF6E
S11304802FEB36E0915020403040E1F700C00000EF
S113049085E690E0C4D28FEF9FEB26E08150904038
S11304A02040E1F700C000008CE690E0B8D23FEFB6
S11304B08FEB96E0315080409040E1F700C000009F
S11304C088E790E0ACD22FEF3FEB86E0215030403C
S11304D08040E1F700C000008EEB90E0A0D29FEFD7
S11304E02FEB38EA915020403040E1F700C0000083
S11304F08EE990E094D28FEF9FEB28EA81509040F0
S11305002040E1F700C000006DE071E08BE391E072
S1130510F5D2892B09F44EC0C39868EC70E084EFDF
S113052091E09DDD80E690E07AD23FEF8FEB96E09C
S1130530315080409040E1F700C0000085E690E033
S11305406ED22FEF3FEB86E0215030408040E1F740
S113055000C000008CE690E062D29FEF2FEB36E003
S1130560915020403040E1F700C0000088E790E05F
S113057056D28FEF9FEB26E0815090402040E1F768
S113058000C0000084E191E04AD23FEF8FEB98EA8B
S1130590315080409040E1F700C000008EE990E0C7
S11305A03ED22FEF3FEB88EA215030408040E1F704
S11305B000C0000062E271E08BE391E09FD2892BDE
S11305C009F44EC0C29A68EC70E084EF91E047DD14
S11305D080E690E024D29FEF2FEB36E0915020404C
S11305E03040E1F700C0000085E690E018D28FEFBC
S11305F09FEB26E0815090402040E1F700C00000CE
S11306008CE690E00CD23FEF8FEB96E031508040C7
S11306109040E1F700C0000088E790E000D22FEF9F
S11306203FEB86E0215030408040E1F700C00000FD
S113063085EE90E0F4D19FEF2FEB38EA9150204003
S11306403040E1F700C000008EE990E0E8D18FEF80
S11306509FEB28EA815090402040E1F700C0000061
S113066067E271E08BE391E049D2892B09F4B6CDBE
S1130670C29868EC70E084EF91E0F1DC80E690E0F1
S1130680CED13FEF8FEB96E0315080409040E1F7C0
S113069000C0000085E690E0C2D12FEF3FEB86E07A
S11306A0215030408040E1F700C000008CE690E02B
S11306B0B6D19FEF2FEB36E0915020403040E1F768
S11306C000C0000088E790E0AAD18FEF9FEB26E0FE
S11306D0815090402040E1F700C000008AEF90E094
S11306E09ED13FEF8FEB98EA315080409040E1F784
S11306F000C000008EE990E092D12FEF3FEB88EA32
S1130700215030408040E1F700C0000067CD1F92C7
S11307100F920FB60F9211242F933F934F935F9331
S11307206F937F938F939F93AF93BF93EF93FF93B5
S113073080919F019091A001A091A101B091A2018B
S11307400196A11DB11D80939F019093A001A093D8
S1130750A101B093A2018091A3019091A401A09161
S1130760A501B091A6010196A11DB11D8093A3011D
S11307709093A401A093A501B093A60180912D01AB
S113078090912E01892B29F0E0912D01F0912E01F9
S11307900995FF91EF91BF91AF919F918F917F91B7
S11307A06F915F914F913F912F910F900FBE0F90DA
S11307B01F9018951F920F920FB60F9211242F932A
S11307C03F934F935F936F937F938F939F93AF93D5
S11307D0BF93EF93FF9380912F0190913001892B68
S11307E029F0E0912F01F09130010995FF91EF91EB
S11307F0BF91AF919F918F917F916F915F914F9135
S11308003F912F910F900FBE0F901F9018951F923C
S11308100F920FB60F9211242F933F934F935F9330
S11308206F937F938F939F93AF93BF93EF93FF93B4
S11308308091A7019091A801A091A901B091AA016A
S11308400196A11DB11D8093A7019093A801A093C7
S1130850A901B093AA018091370190913801892BA5
S113086029F0E0913701F09138010995FF91EF915A
S1130870BF91AF919F918F917F916F915F914F91B4
S11308803F912F910F900FBE0F901F9018951F92BC
S11308900F920FB60F9211242F933F934F935F93B0
S11308A06F937F938F939F93AF93BF93EF93FF9334
S11308B08091310190913201892B29F0E09131012D
S11308C0F09132010995FF91EF91BF91AF919F9102
S11308D08F917F916F915F914F913F912F910F90E5
S11308E00FBE0F901F9018951F920F920FB60F9284
S11308F011242F933F934F935F936F937F938F9321
S11309009F93AF93BF93EF93FF93809133019091A3
S11309103401892B29F0E0913301F09134010995D8
S1130920FF91EF91BF91AF919F918F917F916F91C3
S11309305F914F913F912F910F900FBE0F901F9099
S113094018951F920F920FB60F9211242F933F9375
S11309504F935F936F937F938F939F93AF93BF93C3
S1130960EF93FF938091350190913601892B29F003
S1130970E0913501F09136010995FF91EF91BF9116
S1130980AF919F918F917F916F915F914F913F9123
S11309902F910F900FBE0F901F9018951F920F92DA
S11309A00FB60F9211242F933F934F935F936F933E
S11309B07F938F939F93AF93BF93EF93FF93809114
S11309C0390190913A01892B29F0E0913901F09194
S11309D03A010995FF91EF91BF91AF919F918F914A
S11309E07F916F915F914F913F912F910F900FBE27
S11309F00F901F90189590912D029F5F9F712091E9
S1130A002B029217E1F3E92FF0E0E15DFD4F8083C3
S1130A108FB7F89490932D02559A8FBF0895CF9372
S1130A20DF93EC012196FC018081882321F0E3DF30
S1130A3089918111FCCFDF91CF91089580912C028F
S1130A4090912E02891759F08F5F982F9F77E92F85
S1130A50F0E0E555FE4F808190932C02089580E0EC
S1130A6008950F931F93CF93DF93EC0161508C0192
S1130A70060F111D04C0E2DF8993882321F0C017FB
S1130A80D107C9F701C08E01F8011082DF91CF911F
S1130A901F910F9108950F930FB7EF93FF93E09178
S1130AA02B02F0912D02E395EF71EF1301C05598DD
S1130AB0E0932B02F0E0E15DFD4FE081ECB9FF91A2
S1130AC0EF910FBF0F9118950F930FB79F939CB1A0
S1130AD0EF93FF93E0912E02F0912C02E395EF77D0
S1130AE0FE1731F0E0932E02F0E0E555FE4F9083BF
S1130AF0FF91EF919F910FBF0F911895FB015191B9
S1130B005523B1F0BF01DC01052E4D91442369F05A
S1130B1010D0D9F7CD010190002049F04D91411139
S1130B2008D0C9F3FB014111EECF81E090E00197B9
S1130B300895402539F0403229F440294B57465E48
S1130B4008F018940895FB0151915523A9F0BF01B1
S1130B50DC014D9145174111E1F759F4CD010190A4
S1130B60002049F04D9140154111C9F3FB01411199
S1110B70EFCF81E090E001970895F894FFCF55
S1130B7E61740D0A00617465300D0A0061742B6393
S1130B8E6D67663D310D0A0061742B636D67733DAD
S1130B9E223039313939383735343636220D0A0098
S1130BAE73797374656D2069732075701A0061749E
S1130BBE2B636D6764613D2244454C20414C4C22AD
S1130BCE0D0A004741532053454E5345442C52457C
S1130BDE4C4159204953204F4E1A00434D5449005D
S1130BEE61742B636D67723D310D0A006F6E005296
S1130BFE454C4159204C4544204953204F4E1A0030
S1130C0E6F66660052454C4159204C454420495369
S1130C1E204F46461A0052656C61796F0052656C1E
S1130C2E6179660052454C4159204953204F46463E
S10F0C3E1A004C65646F004C656466008D
S9030000FC
